:1000000000000220A1E60100C9E60100CBE60100E4
:10001000CDE60100CFE60100D1E6010000000000BE
:10002000000000000000000000000000D3E6010016
:10003000D5E6010000000000D7E60100D9E6010086
:10004000DBE60100D1ED000041E5010005E501001E
:1000500019E50100DBE6010089CD010091BB01003B
:100060002DE1010035E101003DE10100DBE6010089
:10007000DBE60100DBE60100DBE60100DBE6010078
:10008000DBE60100DBE60100DBE60100DBE6010068
:10009000DBE60100DBE60100DBE60100DBE6010058
:1000A000DBE60100DBE6010045E101004DE1010076
:1000B000DBE60100DBE601000000000000000000BC
:1000C000DBE60100DBE60100DBE601002DE50100D7
:1000D000DBE60100DBE60100DBE60100DBE6010018
:1000E00069E50100000000000000000000000000C1
:1000F00000000000DBE601000000000055E5010003
:1001000000000000000000000000000000000000EF
:1001100000000000000000000000000000000000DF
:1001200000000000000000000000000000000000CF
:1001300000000000000000000000000000000000BF
:1001400000000000000000000000000000000000AF
:10015000000000000000000000000000000000009F
:10016000000000000000000000000000000000008F
:10017000000000000000000000000000000000007F
:10018000000000000000000000000000000000006F
:10019000000000000000000000000000000000005F
:1001A000000000000000000000000000000000004F
:1001B000000000000000000000000000000000003F
:1001C000000000000000000000000000000000002F
:1001D000000000000000000000000000000000001F
:1001E000000000000000000000000000000000000F
:1001F00000000000000000000000000000000000FF
:100200002DE9F04F85B003910778A7F10903042B7E
:10021000044607F07F0200F10100F5D9202AF3D04F
:100220002B2F04BF677804462D2F75D09FED427B9E
:100230008DED007B4FF000084FF000099FB34FF0A9
:10024000000C25464FF0000ADFF8FCB0644619E0C8
:1002500021F044FF80468946304621F0D5FE4246D3
:100260004B4621F085FD5246804689465B46DDE9D6
:1002700000013CB322F05CF8CDE90001A44615F87A
:10028000017F7FB1A7F13006092E52465B464046FA
:100290004946DDD9CCB92E2F17D115F8017F01249D
:1002A000002FEFD12C4642464B46DDE9000121F0FC
:1002B00015FF80468946039B404649461C6005B0B1
:1002C000BDE8F08F4FF0010CD9E72C46BCF1000FD0
:1002D00029D042464B46DDE9000121F0FFFE07F040
:1002E000DF07452F80468946E5D10399681C0A221D
:1002F00021F00CFD14490246002022F04FFA02467C
:100300000B464046494621F0E9FE80468946404674
:10031000494605B0BDE8F08F9FED097B67788DED0C
:10032000007B013486E7DFF824904FF00008404658
:10033000494605B0BDE8F08F000000000000F03F26
:10034000000000000000F0BF000024400000F87F23
:100350002DE9F0470023144600228046894622F00A
:100360002FF928B109F1004399462D232370013458
:10037000002200234046494622F018F928B13022D5
:10038000002322706370BDE8F087404649461FF0A5
:10039000F5F922F053F973A3D3E900230746494640
:1003A000404622F00DF900284ED170A3D3E9002376
:1003B0004046494622F022F9002845D10E2F07F188
:1003C000010540F3B980A7F10E06324600206249CC
:1003D00022F0E4F902460B464046494621F0A8FFC8
:1003E00000225E4B21F0C4FC22F014FA002DA7F18C
:1003F0000F0E4FF0010C4DDD594FDFF878810122CF
:1004000045F6F3294FF02E0A494508BF40454FF005
:1004100030030AD3B0EB080061EB0901494508BF7E
:10042000404503F10103F5D2DBB2237050EA01032A
:1004300004F101084AD1954252DD0132102A4FD011
:10044000444677E90289DFE7002F33DB3A46002094
:10045000414922F0A3F902460B464046494621F0A5
:1004600067FF3BA3D3E90023804689460125002688
:100470004046494621F032FE0022384B21F078FCFC
:1004800022F0C8F9002DBC464FF0FF3E37464FF032
:100490000006B1DC234630224FF02E0803F8022B71
:1004A00084F80180FC4345D01C4403F8012BA3428F
:1004B000FBD1A1E77A420020274922F06FF90246DA
:1004C0000B464046494621F009FECAE7954202F133
:1004D000010204BF84F801A004F10208102AAFD180
:1004E0006EB14246302102F8011BC2F10103734490
:1004F0004344002BF7DC2EEAEE7301339844BCF141
:10050000010F12D0BCF1000F4FF0650388F80030E6
:10051000C5BF2B2388F8013008F1010108F1020161
:100520006046BDE8F04713F049BA002388F8003070
:10053000BDE8F0871C465FE7C7F10E0200200649C0
:1005400022F02CF93E4602460B46012790E700BFF9
:100550000000901EC4BCD642000024400000E03FD2
:10056000E83402008DEDB5A0F7C6B03E50EFE2D6FC
:10057000E41A4B4400407A1070B54FF0FF3008F099
:10058000F7F904466FF07F4008F0F2F9064620467E
:1005900021F02AFD00220C4B21F0A0FD044630463C
:1005A0000D4621F021FD06A3D3E9002321F0C0FE72
:1005B00002460B462046294621F0DAFB70BD00BFFB
:1005C0000000E0DFFFFF6F430000F03D000000008F
:1005D0002DE9F843036B044618680D4621F026FD0B
:1005E000064668680F4668B321F00EFD1FF0C6F896
:1005F000236B95ED037AD3ED007A77EE677A804628
:10060000894617EE900A21F011FD42464B4621F033
:1006100065FD10A3D3E9002321F08AFE3B46324654
:1006200021F0A6FB22F052F807EE900AF5EEC07A10
:10063000F1EE10FA4FF0000354BFC4ED137AE364F7
:10064000BDE8F88300200249D0E700BFAFF3008087
:100650000000F03F333333333333FF3F00000000FB
:100660002DE9F04F2DED028B044683B0C06821F0D8
:10067000CBFC80462069894621F0C6FC8246606931
:100680008B4621F0C1FC024601F1004306460F46AD
:10069000404649461EF026FF22F018F8E062054663
:1006A0001EF0D8FD019028461EF088FD019B0546EE
:1006B000184621F0BBFC42464B4621F00FFD804618
:1006C0002846894621F0B2FC32463B4621F006FD21
:1006D00002460B464046494621F048FB02460B467F
:1006E000504659461EF0FEFE21F0F0FF002208EEB3
:1006F000100A00233046394621F080FF28B3B5EEBA
:10070000C08AF1EE10FA1CDD11A7D7E9006718EED8
:10071000100A21F08BFC02460B463046394621F088
:1007200025FB32463B4621F023FB21F0CFFFA062A0
:10073000E38843F00203E38003B0BDEC028BBDE825
:10074000F08F05A7D7E90067E1E784ED0A8AEFE7B4
:10075000EA2E4454FB21F93FEA2E4454FB21F9BF11
:1007600008B514F089FDDFED0C7A07EE100A67EE8C
:10077000277A17EE900A21F059FC05A3D3E900234C
:1007800021F0D6FD21F05AFF08BD00BFAFF3008075
:10079000EA2E4454FB2119400000B443000000003D
:1007A00008B514F077FDDFED0C7A07EE100A67EE5E
:1007B000277A17EE900A21F039FC05A3D3E900232C
:1007C00021F0B6FD21F03AFF08BD00BFAFF3008075
:1007D000EA2E4454FB2119400000B44300000000FD
:1007E00070B52DED068B044684B0406CDFED34AA65
:1007F00014F050FD0646606C14F03EFD02222146C6
:10080000054601A814F062FEDDED027AB8EEE78A33
:10081000DDED037A3046B8EEE79A1EF01BFD0AEED6
:10082000100A30461EF0CAFC09EE900A28461EF057
:1008300011FD08EE900A28461EF0C0FC68EE287AEA
:100840009DED017A06EE900AB8EEC77A67EE8A7AD5
:1008500029EEC88AE7EE267A69EE288AA9EE0A8A86
:10086000E8EEA97A18EE101A17EE900A1FF0CAF8EF
:1008700007EE900A67EEAA7A17EE900A21F0D6FBEF
:100880000DA3D3E9002321F053FD21F01FFFDFED7D
:100890000D7A07EE100A77EEC77AF5EEC07AF1EE20
:1008A00010FA48BF77EEAA7AFDEEE77A17EE900AC3
:1008B00004B0BDEC068B70BDEA2E4454FB211940F8
:1008C0000000B4430000B44200B585B001220146E7
:1008D00001A814F0FBFDDDED027AF8EEE77A17EEE1
:1008E000901ADDED017AF8EEE77A17EE900A1FF024
:1008F00089F8DFED137A07EE100A67EE277A17EE14
:10090000900A21F093FB0CA3D3E9002321F010FD02
:1009100021F0DCFE07EE900AF5EEC07AF1EE10FA57
:1009200044BF9FED087A77EE877AFDEEE77A17EEFF
:10093000900A05B05DF804FBEA2E4454FB210940FF
:10094000000034430000B443494A21F0004393427D
:100950002DE9704304460D4649DC464A93420E4653
:100960000EDC3FA3D3E9002321F002FA0022424B20
:1009700021F044FE00284AD020462946BDE8708375
:100980003E4A934239DCB3F1804F40DD1EF004FB58
:100990002246804689462B462046294621F09EFB6A
:1009A0000022354B21F0E4F91FF0A4FB42464B46F0
:1009B00021F0DEF902460B4600202F4921F0B8FC59
:1009C000424604460D464B464046494621F0D0F982
:1009D00002460B462046294621F0CAF901F0A0FE46
:1009E000002E08DC01F100431946BDE87083024681
:1009F0000B4621F0BDF9BDE870831EF0CDFA01F081
:100A00008FFE19A3D3E9002321F0B2F9E8E72246CB
:100A10002B462046294621F061FB80468946204628
:100A200029461EF0B9FA002204460D46124B4046F4
:100A3000494621F09DF91FF05DFB00220E4B21F08D
:100A400097F902460B464046494621F071FC224682
:100A50002B4621F08DF900F0A7FAC1E7AFF3008033
:100A60009C7500883CE4377EEF39FAFE422EE63F63
:100A7000FFFFEF7FFFFF2F3E0000F03F0000B0417F
:100A80002DE9F84FBE4B21F000469E4204460D462C
:100A90008A460EDDBB4B9E4200F3B18000F0AC8075
:100AA000BAF1000F40F3EA8099A1D1E90001BDE855
:100AB000F88FB54B9E4200F3BA80A3F1DE739E42DD
:100AC00040F3A5804FF0FF3B22462B4620462946A7
:100AD00021F004FB02460B468046894621F0FEFACF
:100AE0008DA3D3E9002306460F4621F0F7FA8CA325
:100AF000D3E9002321F03CF932463B4621F0EEFADF
:100B000089A3D3E9002321F033F932463B4621F093
:100B1000E5FA87A3D3E9002321F02AF932463B46C0
:100B200021F0DCFA84A3D3E9002321F021F9324635
:100B30003B4621F0D3FA82A3D3E9002321F018F930
:100B400042464B4621F0CAFA7FA3D3E900238046F0
:100B500089463046394621F0C1FA7DA3D3E9002306
:100B600021F004F932463B4621F0B8FA7AA3D3E9E2
:100B7000002321F0FBF832463B4621F0AFFA78A380
:100B8000D3E9002321F0F2F832463B4621F0A6FAE1
:100B900075A3D3E9002321F0E9F832463B4621F062
:100BA0009DFA02460B464046494621F0E1F82246AE
:100BB0002B4621F093FABBF1FF3F02460B4661D072
:100BC000724B734E4FEACB0B5B44D3E9002321F009
:100BD000CDF822462B4621F0C9F8B34402460B4615
:100BE000DBE9000121F0C2F8BAF1000F0DDA01F1E2
:100BF00000431946BDE8F88F00283FF451AF224664
:100C00002B462046294621F0B3F8BDE8F88F58A3BB
:100C1000D3E9002321F0ACF800225E4B21F0EEFC7A
:100C200000283FF44FAF20462946BDE8F88F1EF05C
:100C3000B3F9594B9E4204460D4629DCA3F55023D7
:100C40009E424EDC02460B4621F092F80022514BA8
:100C500021F08CF8002206460F464FF080432046D4
:100C6000294621F085F802460B463046394621F0E8
:100C70005FFB4FF0000B04460D4625E73EA1D1E98E
:100C80000001C2E72046294621F070F8BDE8F88F40
:100C9000424B9E421ADC0022414B21F067F80022B1
:100CA00006460F463E4B2046294621F017FA002201
:100CB000384B21F05DF802460B463046394621F0AC
:100CC00037FB4FF0020B04460D46FDE602460B468D
:100CD0000020344921F02CFB4FF0030B04460D4655
:100CE000F2E600222B4B21F041F8002206460F4687
:100CF000284B2046294621F03BF802460B46304659
:100D0000394621F015FB4FF0010B04460D46DBE69A
:100D1000182D4454FB21F93F11DA22E33AAD903FFC
:100D2000EB0D76244B7BA93F513DD0A0660DB13F22
:100D30006E204CC5CD45B73FFF8300922449C23F8A
:100D40000D5555555555D53F2F6C6A2C44B4A2BF4F
:100D50009AFDDE522DDEAD3F6D9A74AFF2B0B33F17
:100D6000711623FEC671BC3FC4EB98999999C93F8F
:100D70009C7500883CE4377E182D4454FB21F9BF54
:100D8000FFFF0F440000F07FFFFFDB3F1035020044
:100D9000F03402000000F03FFFFFF23FFF7F03400E
:100DA0000000F83F0000F0BF2DE9F041C1F30A5701
:100DB000A7F2FF35132D02460B460C468846064621
:100DC00020DC002D4ADB364F2F4101EA070C5CEA9C
:100DD000000C1CD030A3D3E9002320F0C9FF00226F
:100DE000002321F00BFC48B1002C04DD4FF48013EC
:100DF00043FA05F5A84428EA0704002621463046B0
:100E0000BDE8F081332D06DDB5F5806F38D0104692
:100E10001946BDE8F081A7F213474FF0FF3C2CFACA
:100E200007F70742F3D01CA3D3E9002320F0A0FF6B
:100E30000022002321F0E2FB0028DFD0002C09DD96
:100E4000142D22D00123C5F1340503FA05F5AE199E
:100E500028BF984426EA07064446CFE70EA3D3E905
:100E6000002320F085FF0022002321F0C7FB00288B
:100E7000C4D0002C0CDB264305D00026094CBDE76E
:100E800020F076FFC5E73446B8E704F10108E1E752
:100E900000264FF00044B1E79C7500883CE4377EA3
:100EA000FFFF0F000000F03F2DE9F041C1F30A57AA
:100EB000A7F2FF35132D02460B460C468846064620
:100EC0001DDC002D3CDB364F2F4101EA070C5CEAAC
:100ED000000C19D030A3D3E9002320F049FF0022F1
:100EE000002321F08BFBC8B3002C04DA4FF48013ED
:100EF00043FA05F5A84428EA070400262EE0332D1E
:100F000006DDB5F5806F2DD010461946BDE8F0819D
:100F1000A7F213474FF0FF3C2CFA07F70742F3D034
:100F20001DA3D3E9002320F023FF0022002321F09A
:100F300065FB98B1002C21DB26EA070644460DE04C
:100F400015A3D3E9002320F013FF0022002321F092
:100F500055FB18B1002C08DB0026344621463046EC
:100F6000BDE8F08120F004FFD0E724F000430D4AF3
:100F70001E43002E18BF14460026EFE7142D08D09C
:100F80000123C5F1340503FA05F5AE1928BF9844CD
:100F9000D2E704F10108CFE79C7500883CE4377E76
:100FA000FFFF0F000000F0BF2DE9F04FD84B994232
:100FB00087B08046894643DDD64B99420E4600F302
:100FC000F480D54B994240F32D819FEDBB7B8DED95
:100FD000047B4FEA215A0446AAF2FF3ACF4BC6F3EC
:100FE00013069E4246F07F5500F3128145F44015EA
:100FF000204629460022CA4B20F0B8FE00220446B3
:101000000D46C84B21F06AF822462B4621F066F8BF
:10101000A046CDE90201A946CDE90001002E3AD152
:10102000002200232046294621F0C0FA002800F0C3
:101030001B81BAF1000F40F0858100200021B8E04B
:10104000B94B21F000449C420A460FDD0022B74B09
:1010500021F0ACFA002800F0AF800022002300202D
:10106000B34921F065F907B0BDE8F08FB14B9C4260
:1010700040F3AF80B04B1A449A4240F2D380002232
:10108000A84B21F02BF842464B4621F027F8CDE93A
:1010900000014FF0000A00224FF0804340464946CD
:1010A00020F066FE02460B464046494621F040F9D4
:1010B00002460B4606460F4621F010F880A3D3E9FE
:1010C000002304460D4621F009F87FA3D3E900234D
:1010D00020F04EFE22462B4621F000F87CA3D3E9F7
:1010E000002320F045FE22462B4620F0F7FF7AA38E
:1010F000D3E9002320F03CFE22462B4620F0EEFFF1
:1011000077A3D3E9002320F033FE22462B4620F0BC
:10111000E5FF75A3D3E9002320F02AFE22462B46E3
:1011200020F0DCFF72A3D3E9002320F021FE224649
:101130002B4620F0D3FFDDE9002320F019FE3246D4
:101140003B4620F0CBFF04460D46BAF1000F00F0FD
:10115000A880504620F058FF67A3D3E900238246B9
:101160008B4620F0BBFF66A3D3E9002306460F465B
:101170005046594620F0B2FFDDE9042320F0F8FD87
:1011800022462B4620F0F4FD02460B46DDE9000125
:1011900020F0ECFD42464B4620F0E8FD02460B46AF
:1011A0003046394620F0E2FD03E002460B4620F0CF
:1011B000DFFD07B0BDE8F08F42464B46404649464A
:1011C00020F0D4FD02460B4621F0B2F807B0BDE88E
:1011D000F08F0022594B20F0CBFD0022002321F09C
:1011E0000DFA10B1564B9C4262DD42464B464046DA
:1011F000494620F073FF00224A4B20F06FFF024661
:101200000B464046494620F0B1FD07B0BDE8F08FDF
:1012100045F40015C6F5801620462946B6100AF199
:10122000010AE7E600223E4B4046494620F0A0FD79
:101230004FEA215AAAF2FF3ABAF1000F04460D46CE
:101240000E4640F3BD8042464B4620F08FFD0246DD
:101250000B460020324920F089FD22462B4621F022
:1012600067F8CDE90401B9E627A3D3E900232046B6
:10127000294620F033FF02460B460020284920F083
:1012800075FDDDE9022320F029FF06460F46BAF17D
:10129000000F75D102460B462046294620F066FD18
:1012A00087E702460B46DDE9000120F05FFDA6E777
:1012B000404649467DE700BF0000000000000000F6
:1012C00044523EDF12F1C23F9FC678D0099AC33F15
:1012D000DE03CB966446C73FAF788E1DC571CC3F09
:1012E000599322942449D23F04FA97999999D93F66
:1012F000935555555555E53F0000E0FE422EE63F1B
:10130000763C7935EF39EA3D555555555555E53F0C
:101310007982DA3FFFFFEF7FFFFF3F439DA006008A
:101320000000F03F0000E03FFFFFEF3F0000F0BF94
:10133000000050C3FFFF1F3E3C412D4000005043C2
:10134000FFFF8F3C504620F05FFE24A3D3E900232B
:1013500006460F4620F0C2FEDDE9042320F008FD1A
:1013600020A3D3E9002304460D463046394620F039
:10137000B5FE02460B462046294620F0F9FC18E748
:10138000504620F041FE17A3D3E9002382468B4646
:1013900020F0A4FE11A3D3E90023804689465046DD
:1013A000594620F09BFEDDE9042320F0E1FC0246D3
:1013B0000B463046394620F0D9FC22462B4674E7CE
:1013C0000022054B20F0D2FC02460B46404649461F
:1013D00020F0CCFC41E700BF0000F03F763C7935BF
:1013E000EF39EA3D0000E0FE422EE63F000000003B
:1013F00008B51EF045F904A3D3E9002320F098FFB7
:1014000008BD00BFAFF30080EF39FAFE422EE63F81
:101410002DE9F043DFF8B4808BB004460D4600F0B0
:1014200057FF98F90030013306460F462CD022466C
:101430002B462046294621F0EBF8814620BB20466A
:1014400029461DF0A9FD1FA3D3E9002321F0D6F8FA
:10145000D0B1194A98F90030CDF820900321CDE998
:101460000445CDE90245CDE9001293B113490020AE
:10147000022BCDE9060111D120F0F0FB22230360FD
:10148000089B9BB9DDE90667304639460BB0BDE8DD
:10149000F0830B4B4FF06042CDE90623684620F005
:1014A00089F80028E8D0089B002BEBD020F0D6FB71
:1014B000089B0360E6E700BFBC5E02000000F07F0F
:1014C000FFFFEF477DF8B98FCE338640D40200206E
:1014D0002DE9F043DFF8E4808BB004460D4600F0C0
:1014E000A7FF98F90030013306460F4633D0204657
:1014F000294620F059F870B32CA3D3E900232046E5
:10150000294621F07BF8814650BB2AA3D3E900236A
:101510002046294621F054F8E8B198F90030204AD5
:10152000CDF82090002000210426022BCDE90445AF
:10153000CDE902450096CDE90601019229D0684621
:1015400020F038F828B3089B1BB120F087FB089BDC
:101550000360DDE90667304639460BB0BDE8F0832D
:101560000F4A98F90030019203210022CDE9044589
:10157000CDE90245009108922BB90A4B4FF0604229
:10158000CDE90623DBE708490020022BCDE906015F
:10159000D5D120F063FB22230360D4E7AFF30080B2
:1015A000C45E0200FFFFEF470000F07FEF39FAFE54
:1015B000422E864051302DD5104987C0D4020020DC
:1015C0002DE9F84FC44E21F00043B34204460D46C6
:1015D0000DDD03F1404303F58013034340F0B98070
:1015E000002940F3408100200021BDE8F88FBB4E68
:1015F000B34208DCBA4A934200F3B5809CA1D1E91A
:101600000001BDE8F88F0029C0F2708102460B4648
:101610000020B44920F0AAFB0022B34B20F05EFD6D
:1016200004460D461EF066FD93A3D3E900238946C8
:1016300080462946204620F051FD91A3D3E900239E
:1016400020F096FB22462B4620F048FD8EA3D3E9DE
:10165000002320F08BFB22462B4620F03FFD8CA37D
:10166000D3E9002320F084FB22462B4620F036FDF0
:1016700089A3D3E9002320F079FB22462B4620F0F2
:101680002DFD87A3D3E9002320F072FB22462B46D1
:1016900020F024FD84A3D3E9002382468B46204614
:1016A000294620F01BFD82A3D3E9002320F05EFB36
:1016B00022462B4620F012FD7FA3D3E9002320F021
:1016C00057FB22462B4620F009FD7DA3D3E90023DA
:1016D00020F04CFB22462B4620F000FD0022814BDF
:1016E00020F046FB02460B465046594620F020FEAD
:1016F00042464B4620F0F2FC002682468B4632469C
:101700004B463046494620F0E9FC02460B4620464F
:10171000294620F02BFB324604460D464B464046F8
:10172000494620F025FB02460B462046294620F07C
:10173000FFFD02460B465046594620F019FB324643
:101740004B4620F015FB02460B4620F011FBBDE88E
:10175000F88F02460B4620F009FB02460B4620F0AC
:10176000E7FDBDE8F88F02460B4620F0B7FC42A328
:10177000D3E9002306460F4620F0B0FC40A3D3E98E
:10178000002320F0F5FA32463B4620F0A7FC3EA3AA
:10179000D3E9002320F0EAFA32463B4620F09EFCD3
:1017A0003BA3D3E9002320F0E3FA32463B4620F086
:1017B00095FC39A3D3E9002320F0D8FA32463B4602
:1017C00020F08CFC36A3D3E9002320F0D1FA324676
:1017D0003B4620F083FC34A3D3E9002380468946AE
:1017E0003046394620F07AFC31A3D3E9002320F0BB
:1017F000BDFA32463B4620F071FC2FA3D3E900230B
:1018000020F0B6FA32463B4620F068FC2CA3D3E920
:10181000002320F0ABFA32463B4620F05FFC00226A
:10182000304B20F0A5FA02460B464046494620F0D0
:101830007FFD22462B4620F051FC02460B4622A19A
:10184000D1E9000120F092FA02460B4620462946D3
:1018500020F08CFA02460B4605A1D1E9000120F0E8
:1018600085FABDE8F88F1AA1D1E9000179E700BF38
:10187000182D4454FB21F93F09F7FD0DE13D023FCE
:1018800088B20175E0EF493F3B8F68B52882A43FDD
:101890005544880E55C1C93F7D6FEB0312D6D43F26
:1018A000555555555555C53F82922EB1C5B8B33FD4
:1018B00059018D1B6C06E63FC88A599CE52A0040F9
:1018C0004B2D8A1C273A0340075C143326A6913C13
:1018D000182D4454FB210940FFFFEF3FFFFFDF3F7E
:1018E0000000603C0000F03F0000E03F00225C4B45
:1018F00020F03EFA00225B4B20F0F0FB40A3D3E93E
:10190000002304460D4620F0E9FB3FA3D3E9002362
:1019100020F02EFA22462B4620F0E0FB3CA3D3E930
:10192000002320F023FA22462B4620F0D7FB3AA3CF
:10193000D3E9002320F01CFA22462B4620F0CEFBF0
:1019400037A3D3E9002320F011FA22462B4620F0DA
:10195000C5FB35A3D3E9002320F00AFA22462B4623
:1019600020F0BCFB80468946204629461EF0C2FB7B
:101970002FA3D3E9002306460F462046294620F030
:10198000ADFB2DA3D3E9002320F0F0F922462B462E
:1019900020F0A4FB2AA3D3E9002320F0E9F9224692
:1019A0002B4620F09BFB28A3D3E9002320F0DEF98F
:1019B00022462B4620F092FB0022294B20F0D8F93A
:1019C00002460B464046494620F0B2FC32463B46B2
:1019D00020F084FB1EA3D3E9002320F0C7F9324690
:1019E0003B4620F0C5F902460B4620F0C1F90246FD
:1019F0000B4619A1D1E9000120F0B8F9B1E600BF0A
:101A000009F7FD0DE13D023F88B20175E0EF493F66
:101A10003B8F68B52882A43F5544880E55C1C93F05
:101A20007D6FEB0312D6D43F555555555555C53FDF
:101A300082922EB1C5B8B33F59018D1B6C06E63FAB
:101A4000C88A599CE52A00404B2D8A1C273A03403E
:101A5000075C143326A6913C182D4454FB21094001
:101A60000000F03F0000E03F414A91422DE9F84379
:101A700004460D4637DD3F4A91420B4608DD02F130
:101A8000795291423DDD024620F072F9BDE8F883BB
:101A900001F1404202F5801202432ED0B1F1804F95
:101AA00037DC0022344B20F061F902460B46044635
:101AB0000D4620F05DF9224606460F462B4620468D
:101AC000294620F00BFB02460B463046394620F0F3
:101AD0004FF91EF00FFB22462B4620F049F9BDE8D6
:101AE000F843FFF761BA02460B4620F03FF9024681
:101AF0000B4620F01DFCBDE8F88300200021BDE866
:101B0000F88300F00DFE18A3D3E9002320F030F98C
:101B1000F1E7024620F0E2FA0022174B20F026F906
:101B20001EF0E8FA2246804689462B462046294682
:101B300020F01EF9224606460F462B4640464946EF
:101B400020F016F902460B4600200B4920F0F0FB6E
:101B50000B4602463946304620F008F9BDE8F84306
:101B600000F0DEBDAFF30080EF39FAFE422EE63F13
:101B7000FFFFEF3FFFFFAF410000F03F000000001C
:101B80002DE9F04FAE4B21F000479F4287B004464D
:101B90000D4611DD07F1404707F5801703463B432B
:101BA00021D002460B4620F0E1F802460B4620F019
:101BB000BFFB07B0BDE8F08FA24B9F420E4629DC69
:101BC000B7F1795F80F2468181A3D3E9002320F049
:101BD000CFF800229C4B20F011FDD8B120462946B9
:101BE00007B0BDE8F08F7CA3D3E9002320F076FA9C
:101BF0007BA3D3E9002306460F462046294620F062
:101C00006DFA02460B463046394620F0B1F807B06F
:101C1000BDE8F08F204629461DF0BEF902460B466E
:101C20000020894920F0A2F80022884B20F056FAC3
:101C30006DA3D3E9002304460D4620F04FFA6CA3B0
:101C4000D3E9002320F094F822462B4620F046FAF0
:101C500069A3D3E9002320F089F822462B4620F01F
:101C60003DFA67A3D3E9002320F082F822462B46F1
:101C700020F034FA64A3D3E9002320F077F8224659
:101C80002B4620F02BFA62A3D3E9002320F070F852
:101C900022462B4620F022FA5FA3D3E90023CDE9A8
:101CA00000012046294620F019FA5DA3D3E900235C
:101CB00020F05CF822462B4620F010FA5AA3D3E914
:101CC000002320F055F822462B4620F007FA58A3AF
:101CD000D3E9002320F04AF822462B4620F0FEF9F3
:101CE000594B002220F044F882468B462046294674
:101CF000CDE902AB1EF0FEF9554B9F428046894666
:101D000000F3198102460B4620F032F8DDE9022388
:101D1000CDE90401DDE9000120F00AFB02460B4693
:101D2000DDE9040120F0DAF94FF0000ACDE9000105
:101D300052464B465046494620F0D0F902460B46E3
:101D40002046294620F012F8524604460D464B46DE
:101D50004046494620F00CF802460B4620462946EC
:101D600020F0E6FA02460B4620F002F802460B4647
:101D70001BA1D1E900011FF0F9FF02460B46DDE986
:101D800000011FF0F3FF524604460D464B465046F5
:101D900049461FF0EDFF02460B4627A1D1E900019D
:101DA0001FF0E4FF02460B46204629461FF0DEFFE7
:101DB00002460B4620A1D1E900011FF0D7FF002EFB
:101DC0003FF7F7AE01F100431946F2E6AFF30080AA
:101DD0009C7500883CE4377E182D4454FB21F93F64
:101DE000075C143326A6913C09F7FD0DE13D023F47
:101DF00088B20175E0EF493F3B8F68B52882A43F68
:101E00005544880E55C1C93F7D6FEB0312D6D43FB0
:101E1000555555555555C53F82922EB1C5B8B33F5E
:101E200059018D1B6C06E63FC88A599CE52A004083
:101E30004B2D8A1C273A0340182D4454FB21E93FBF
:101E4000FFFFEF3FFFFFDF3F0000F03F0000E03FFC
:101E50003233EF3F02460B4620F040F94BA3D3E963
:101E6000002306460F4620F039F94AA3D3E90023A0
:101E70001FF07EFF32463B4620F030F947A3D3E9FE
:101E800000231FF073FF32463B4620F027F945A39D
:101E9000D3E900231FF06CFF32463B4620F01EF9C9
:101EA00042A3D3E900231FF061FF32463B4620F0F6
:101EB00015F940A3D3E900231FF05AFF32463B46F1
:101EC00020F00CF93DA3D3E9002380468946304633
:101ED000394620F003F93BA3D3E900231FF046FF66
:101EE00032463B4620F0FAF838A3D3E900231FF02E
:101EF0003FFF32463B4620F0F1F836A3D3E90023FA
:101F00001FF034FF32463B4620F0E8F800221E4B1B
:101F10001FF02EFF02460B464046494620F008FAC5
:101F200022462B4620F0DAF822462B461FF020FFEF
:101F300007B0BDE8F08F52465B46DDE9000120F0B6
:101F4000F7F942464B4620F0C9F842464B461FF08F
:101F50000FFF02460B461FF00BFF07A3D3E9002338
:101F60001FF004FF02460B4605A1D1E900011FF056
:101F7000FDFE24E7AFF30080075C143326A6913CF6
:101F8000182D4454FB21F93F0000F03F09F7FD0DE7
:101F9000E13D023F88B20175E0EF493F3B8F68B5F4
:101FA0002882A43F5544880E55C1C93F7D6FEB037D
:101FB00012D6D43F555555555555C53F82922EB131
:101FC000C5B8B33F59018D1B6C06E63FC88A599CC2
:101FD000E52A00404B2D8A1C273A034000000000F0
:101FE0002DE9F84F1D465342134325F00049DFF811
:101FF000C8C149EAD3736345144606460F4626D83E
:10200000C0F1000848EA000821F0004A4AEAD878FE
:10201000E04503468B461AD805F1404808F580187C
:1020200058EA0208AE4643D04FEAA57808F0020805
:102030005AEA030348EAD17811D1B8F1020F55D01A
:10204000B8F1030F09D14AA1D1E9000105E03246F8
:102050003B46204629461FF08BFEBDE8F88F59EA23
:10206000020329D0E1452ED0E24525D0AAEB09098B
:102070004FEA2959B9F13C0F3CDC002D3EDA19F149
:102080003C0F3BDA00200021B8F1010F4ED0B8F12F
:10209000020F3ED0B8F1000FDFD037A3D3E9002301
:1020A0001FF064FE36A3D3E900231FF05FFED4E7E0
:1020B000BDE8F84FFEF7E4BCBBF1000F12DB32A124
:1020C000D1E90001C9E7CA4534D0B8F1020F0DD0FB
:1020D000B8F1030FB7D0B8F1010F4FF0000036D0C0
:1020E0000021BAE72AA1D1E90001B6E724A1D1E98C
:1020F0000001B2E724A1D1E90001C5E722462B4641
:102100003046394620F014F91CF046FFFEF7B8FCC3
:10211000BAE719A3D3E900231FF028FE02460B46B5
:1021200017A1D1E900011FF021FE96E701F100435C
:10213000194692E7B8F1020F14D0B8F1030F0DD091
:10214000B8F1010F06D014A1D1E9000185E74FF0E5
:10215000004182E712A1D1E900017EE712A1D1E995
:1021600000017AE712A1D1E9000176E7AFF3008020
:10217000182D4454FB2109C0075C143326A6A13C4A
:10218000182D4454FB210940182D4454FB21F93FDC
:10219000182D4454FB21F9BF182D4454FB21E93F6D
:1021A000182D4454FB21E9BFD221337F7CD902C0D2
:1021B000D221337F7CD902400000F07F0000000074
:1021C00043422DE9F047034321F000463C4A46EAEA
:1021D000D373934204460D462AD8964240D0394BD9
:1021E0009E428A462EDD384B9E4235463FDD3346C1
:1021F000024631461FF0BCFD224606460F462B46DE
:1022000000202F491FF0B2FD02460B4630463946EA
:1022100020F08EF8FEF7C8FE00222C4B1FF05EFF68
:10222000BAF1000F0CDA01F100431946BDE8F0875E
:1022300002460B461FF09AFD02460B4620F078F846
:10224000BDE8F0871CA3D3E900231FF091FD002215
:10225000002320F0D3F948B120462946BDE8F08795
:102260000022002320F064F8BDE8F08735462246BE
:102270002B46204629461FF07BFD22462B4606466C
:102280000F461FF02BFF2246804689462B46002032
:102290000B491FF06BFD02460B464046494620F0B5
:1022A00047F832463B461FF063FDFEF77DFE0022F5
:1022B000064B1FF013FFB3E79C7500883CE4377EA4
:1022C0000000F03FFFFF2F3EFFFFDF3F0000E03F39
:1022D0002DE9F8434E4B21F000449C4206460F4640
:1022E0001BDC4C4B9C4222DD4B4B9C4254DD4B4B48
:1022F0009C4246DD4A4B9C426FDD01339C4269D0D3
:1023000041A3D3E90023104619461FF0E7FE064615
:102310000F4630463946BDE8F88302460B461FF0AB
:10232000DDFE06460F4630463946BDE8F8831CF010
:1023300033FE01F0F9FE00223A4B804689461FF039
:1023400017FDB4F1725F06460F46ECDB42464B4682
:10235000404649461FF0C2FE32463B4604460D4603
:10236000304639461FF004FD02460B4620462946FA
:102370001FF0DEFF00222B4B1FF0FAFC06460F4633
:10238000D1E71CF009FE00F053F80022264B1FF0A5
:10239000A5FE06460F46C6E71CF0FEFD00F048F815
:1023A0000022214B06460F461FF098FE3246044697
:1023B0000D463B4600201C491FF0BAFF02460B4663
:1023C000204629461FF0D4FC06460F4630463946C3
:1023D000BDE8F883154B984292D8304639461CF038
:1023E000DBFD0022104B1FF079FE00F021F80022E7
:1023F00004460D460C4B1FF071FE22462B461FF083
:102400006DFE06460F468EE79C7500883CE4377EDD
:10241000FFFFEF7F422ED63FFFFF3540412E864023
:10242000CD3386400000F03F0000E03F7DF8B98FDB
:102430002DE9F047B04F21F00042BA4284B0044683
:102440000D464FEAD17610D9AC4FBA4240F28A809D
:10245000C1F313030343024640F0F180002E7ED007
:102460000020002104B0BDE8F087A54B9A4200F29D
:10247000B680A44B9A4240F2D1804FF0000A224627
:102480002B46204629461FF029FE85A3D3E90023C9
:1024900006460F461FF022FE83A3D3E900231FF058
:1024A00065FC32463B461FF019FE81A3D3E90023A9
:1024B0001FF05EFC32463B461FF010FE7EA3D3E9C0
:1024C00000231FF053FC32463B461FF007FE7CA35F
:1024D000D3E900231FF04CFC32463B461FF0FEFDC3
:1024E00002460B46204629461FF040FC02460B469A
:1024F00006460F46204629461FF0F0FD80468946D5
:10250000BAF1000F00F0AB8032463B4600204FF09E
:1025100080411FF02BFC02460B46404649461FF007
:1025200007FF02460B46DDE902011FF01FFCDDE953
:1025300000231FF01BFC0B460246734900201FF0CE
:1025400015FC6FF47F739A4580F2A3800AF57A7ABE
:1025500001EB0A5100224FF0B8731FF0BFFD04B029
:10256000BDE8F08758A3D3E9002320F047F80028FE
:102570006BD157A3D3E900232046294620F020F849
:1025800000287FF46DAF614953A3D3E9002301EB29
:10259000C606204629461FF0A1FDD6E900231FF0FC
:1025A000E7FB20F04BF882461FF02EFD4CA3D3E949
:1025B000002306460F461FF091FD02460B462046BB
:1025C00029461FF0D3FB48A3D3E90023CDE900013E
:1025D000304639461FF082FDCDE9020115E04C4B33
:1025E0009A42D0D84B4BF4002344D3E900231FF088
:1025F000BDFB494B234493ED007BCDE900018DEDFC
:10260000027BC6F1010AAAEB060ADDE90223DDE935
:1026100000011FF0ABFB04460D4630E734A3D3E9BD
:1026200000231FF0A5FB0022374B1FF0E7FFA8B3E4
:10263000204629460022344B1FF09AFB8FE70B46B9
:102640001FF096FB04B0BDE8F08729A3D3E900236F
:10265000104619461FF042FD04B0BDE8F087304631
:10266000394600224FF080431FF080FB02460B46A4
:10267000404649461FF05CFE22462B461FF076FB83
:1026800002460B46002020491FF070FB04B0BDE855
:10269000F08701EB0A5104B0BDE8F0878246EEE610
:1026A000D0A4BE726937663EF16BD2C541BDBB3E58
:1026B0002CDE25AF6A56113F93BDBE166CC1663F36
:1026C0003E5555555555C53FEF39FAFE422E8640C9
:1026D00051302DD5104987C0FE822B654715F73F35
:1026E0000000E0FE422EE63F763C7935EF39EA3DC8
:1026F0009C7500883CE4377E412E8640FFFFEF7FCB
:10270000422ED63FFFFF2F3E0000F03F3035020043
:10271000B1A2F03F40350200503502000000000039
:102720002DE9F04FB1F5801F85B006460F460B46E8
:1027300080F2D08021F00042024300F0DA800029CC
:10274000C0F2E9800022D64B1FF0C8FCD54A0B46E8
:10275000934206460F466FF0350E00F3C180C3F377
:10276000130505F5152C0CF6647C0CF4801C8CF01C
:102770007F5282F440121C1542EA0507A4F2FF348E
:1027800074440022C84B3046394604EB1C541FF0F9
:10279000EDFAAB1CC3F31303022B82468B464FF0BA
:1027A000000240F3AF804FF080431FF0E1FA024691
:1027B0000B46504659461FF0BBFD064620460F46C5
:1027C0001FF022FC3246CDE902013B463046394635
:1027D000CDE900671FF082FC02460B468046894621
:1027E0001FF07CFC9AA3D3E9002306460F461FF096
:1027F00075FC99A3D3E900231FF0BAFA32463B4691
:102800001FF06CFC96A3D3E900231FF0B1FA324607
:102810003B461FF063FC94A3D3E900231FF0A8FA02
:1028200042464B461FF05AFC91A3D3E90023804651
:102830008946304639461FF051FC8FA3D3E9002367
:102840001FF096FA32463B461FF048FC8CA3D3E9B2
:1028500000231FF08DFA32463B461FF03FFC0B462B
:102860000246494640461FF083FAA5F5C223C5F546
:10287000D725A3F27A4351351D43002D06460F4656
:1028800040F387800022894B504659461FF026FCB2
:1028900052465B461FF022FC02460B4680468946A4
:1028A000304639461FF064FADDE900231FF016FCBC
:1028B00006460F46002C40F0818002460B464046FB
:1028C00049461FF053FA02460B46504659461FF040
:1028D0004DFA0BE0734A93424FF0000E7FF73FAF83
:1028E00032463B46304639461FF042FA05B0BDE855
:1028F000F08F0022002300206D491FF019FD05B064
:10290000BDE8F08F00231FF051FE60B1002C7CD198
:1029100000200021EAE702461FF028FA00220023E7
:102920001FF006FDE2E758A3D3E9002350465946BD
:102930001FF0D4FB02460B4600205C491FF016FA3C
:10294000524606460F465B46504659461FF0C6FBA8
:1029500002460B46304639461FF0C0FB06460F467E
:102960002CB320461FF050FB49A3D3E90023804637
:1029700089461FF0B3FB48A3D3E9002304460D4664
:10298000404649461FF0AAFB02460B4630463946F0
:102990002CE002460B46504659461FF0E7F9DDE9A8
:1029A00000231FF09BFB06460F46002C47D1324602
:1029B0003B46504659461FF0D9F997E734A3D3E96F
:1029C0000023DDE902011FF089FB33A3D3E90023D3
:1029D00004460D46DDE902011FF080FB32463B460E
:1029E0001FF0C6F902460B46404649461FF0BEF9A5
:1029F00052465B461FF0BAF902460B46204629466E
:102A00001FF0B4F905B0BDE8F08F20461FF0FCFAC6
:102A10001FA3D3E9002306460F461FF05FFB1EA34A
:102A2000D3E9002304460D46304639461FF056FBD5
:102A300002460B46204629461FF09AF956E7DDE983
:102A4000028913A3D3E900234046494691E700BF1A
:102A500044523EDF12F1C23FDE03CB966446C73FCD
:102A6000599322942449D23F935555555555E53FE6
:102A70009FC678D0099AC33FAF788E1DC571CC3FF1
:102A800004FA97999999D93F555555555555D53FBC
:102A90000000E0FE422EE63F763C7935EF39EA3D14
:102AA00000005043FFFFEF7F0000F03F0000E03FD9
:102AB000000050C300000000B1F5801F2DE9F8436D
:102AC00004460D460B4619DA21F00042024359D064
:102AD00000295FDB00223A4B1FF000FB394A0D460C
:102AE0002B46934204466FF035010CDD22462B46FF
:102AF000204629461FF03CF9BDE8F883314A93424D
:102B00004FF00001F2DC1815A0F2FF3008444FEA44
:102B1000D0794844C3F313081FF076FAC9F57F73E0
:102B2000033348EA035506460F4620462946FFF779
:102B3000F7FD1DA3D3E90023804689463046394678
:102B40001FF0CCFA1AA3D3E9002304460D464046F1
:102B500049461FF0C3FA02460B46204629461FF09D
:102B600007F915A3D3E9002304460D46304639463C
:102B70001FF0B4FA02460B46204629461FF0F8F82B
:102B8000BDE8F8830022002300200F491FF0D0FB8E
:102B9000BDE8F88302461FF0E9F8002200231FF089
:102BA000C7FBA9E7AFF30080362BF111F3FE593DC7
:102BB0000EE526157BCBDB3F00609F501344D33FCF
:102BC00000005043FFFFEF7F000050C300000000F3
:102BD0002DE9F047CA4B21F000479F4290B0804654
:102BE000894640F38F80C74B9F420C46924626DCB5
:102BF0000029B9A3D3E9002340F38F801FF0B6F872
:102C0000C14B9F4204460D4600F04781B4A3D3E96F
:102C100000231FF0ABF802460B46CAE9002320460A
:102C200029461FF0A3F8AEA3D3E900231FF09EF8B6
:102C30000125CAE90201284610B0BDE8F087B34B70
:102C40009F4240F38980B24B9F4200F31C813D15A7
:102C5000A5F21645A7EB055319461F4606461FF079
:102C6000EDFC1FF0D1F98046894642464B4630467E
:102C70003946CDE90A891FF079F80022A54B1FF0EB
:102C80002DFA894680461FF0D9FC1FF0BDF9064693
:102C90000F4632463B4640464946CDE90C671FF099
:102CA00065F800229B4B1FF019FA00220023CDE9A2
:102CB0000E011FF07BFC002800F0608100233046ED
:102CC000394600221FF072FC002814BF01230223A2
:102CD000914A019202212A4600910AA8514600F029
:102CE00087FB002C054614DADAF80420DAF80C30F9
:102CF00002F1004203F100434542CAF80420CAF839
:102D00000C3006E000200021C2E90089C2E902017E
:102D10000025284610B0BDE8F0871FF029F87A4B4F
:102D20009F4204460D4600F00B816DA3D3E90023BA
:102D30001FF01EF802460B46CAE90023294620462A
:102D40001FF014F866A3D3E900231FF011F84FF029
:102D5000FF35CAE90201DCE71CF01EF962A3D3E9E2
:102D60000023804689461FF0B9F900226B4B1EF004
:102D7000FFFF1FF063FC05461FF046F956A3D3E999
:102D80000023CDE906011FF0A9F902460B46404693
:102D900049461EF0EBFF52A3D3E900238046894643
:102DA000DDE90601CDE902891FF098F91F2D0246E1
:102DB0000B46CDE9042340F3B380DDE90423DDE9CC
:102DC00002011EF0D3FF804689463F15C9F30A531E
:102DD000FB1A102B40F3B18045A3D3E90023DDE9B2
:102DE00006011FF07BF98046894602460B46DDE965
:102DF00002011EF0BBFF02460B46DDE90201CDE9F0
:102E000008231EF0B3FF42464B461EF0AFFF3AA325
:102E1000D3E9002380468946DDE906011FF05EF90B
:102E200042464B461EF0A2FF0B46CDE90401024686
:102E3000DDE908011EF09AFFC1F30A53FF1A312F92
:102E40008046894600F39C809DED087BCAE9008995
:102E50008DED027B42464B46DDE902011EF086FF06
:102E6000DDE904231EF082FF002CCAE90201BFF64F
:102E700050AF09F1004401F100436D42CAE90084FA
:102E8000CAE9020345E702460B461EF06FFF002524
:102E9000CAE90201CAE900013BE715A3D3E900230F
:102EA0001EF064FF14A3D3E900230D4604461EF070
:102EB0005DFF02460B46CAE90023294620461EF064
:102EC00055FF0DA3D3E900231EF050FF0125CAE9E9
:102ED00002011EE7AFF3008000004054FB21F93FE0
:102EE0003163621A61B4D03D83C8C96D305FE43F7D
:102EF0000000601A61B4D03D7370032E8A19A33BA1
:102F0000FB21E93F7BD90240FB21F93FFB213941FD
:102F1000FFFFEF7F00007041845F02000000E03F90
:102F2000404649461EF022FF394B6A1E804653F840
:102F30002230BB4289463FF448AFCAE9008989E79D
:102F40002BA3D3E900231EF013FF2BA3D3E9002307
:102F50000D4604461EF00CFF02460B46CAE900234C
:102F6000294620461EF002FF23A3D3E900231EF0CA
:102F7000FFFE4FF0FF35CAE90201CAE60323A7E6C8
:102F80001FA3D3E90023DDE906011FF0A7F80646D9
:102F90000F4602460B46DDE908011EF0E7FE8046BB
:102FA000894602460B46DDE90801CDE902891EF09B
:102FB000DDFE32463B461EF0D9FE13A3D3E90023C3
:102FC00006460F46DDE906011FF088F832463B460B
:102FD0001EF0CCFE02460B4640464946CDE904238E
:102FE0001EF0C4FE80468946A7E700BFAFF300800D
:102FF0000000601A61B4D03D7370032E8A19A33BA0
:103000000000002E8A19A33BC14920259A837B39F1
:10301000045F020000000000574A2DE9F84F21F03C
:103020000048904506460F462CDC544B0029B4BF9F
:10303000534D544D98454FF0000411DC524B9845C8
:1030400026DC4BA3D3E900231EF092FE00224F4B57
:103050001FF0D4FA002840D030463946BDE8F88F3A
:103060004B4B984530DD4B4B984568DD0133984517
:1030700062D0304639463EA3D3E900231FF02EF834
:10308000BDE8F88F02460B461EF072FEBDE8F88FD1
:103090001BF082FF01F048F83F4B984506460F466B
:1030A00023DD0022394B1EF063FE02460B463046FC
:1030B00039461FF03DF932463B461EF059FE224686
:1030C0002B461FF00BF8E1E71BF066FFFFF7B0F9A6
:1030D00022462B461FF002F8D8E7304639461BF04F
:1030E0005BFF01F021F806460F4632463B4630466C
:1030F00039461EF03DFE324682468B463B46304600
:1031000039461EF0EBFF0022804689461F4B3046B1
:1031100039461EF02DFE02460B46404649461FF03A
:1031200007F902460B46504659461EF01FFE22463E
:103130002B461EF0D3FFA9E7184B984299D830468A
:1031400039461BF029FF00220E4B1EF0C7FFFFF788
:103150006FF906460F4602460B46204629461EF0EA
:10316000BDFF32463B461EF0B9FF8FE7AFF300804C
:103170003374AC3C1F7BAC7FFFFFEF7FFFFF35401C
:103180000000E0BF0000E03FFFFF2F3E0000F03FE7
:10319000412E8640CD338640FFFFEF3F7DF8B98F4B
:1031A0002DE9F04F21F00048B8F1795F85B006466F
:1031B0000F4692469B466BDA1FF040FA002800F05B
:1031C000E18032463B46304639461EF087FF74A305
:1031D000D3E9002304460D461EF080FF72A3D3E915
:1031E00000231EF0C5FD22462B461EF077FF70A37C
:1031F000D3E900231EF0BAFD22462B461EF06EFFD7
:103200006DA3D3E900231EF0B3FD22462B461EF02A
:1032100065FF6BA3D3E900231EF0A8FD22462B46D1
:103220001EF05CFF68A3D3E900231EF0A1FD224637
:103230002B461EF053FFCDE900010022664B2046CD
:1032400029461EF04BFFDDE90023804689462046D3
:1032500029461EF043FF524604460D465B46304663
:1032600039461EF03BFF02460B46204629461EF01B
:103270007DFD02460B46404649461EF077FD02465C
:103280000B46002055491EF071FD05B0BDE8F08FDA
:1032900002460B461EF022FF41A3D3E90023044659
:1032A0000D461EF01BFF40A3D3E900231EF060FD76
:1032B00022462B461EF012FF3DA3D3E900231EF049
:1032C00055FD22462B461EF009FF3BA3D3E9002300
:1032D0001EF04EFD22462B461EF000FF38A3D3E918
:1032E00000231EF043FD22462B461EF0F7FE36A3B8
:1032F000D3E900231EF03CFD2B4622461EF0EEFED5
:10330000374B9845CDE9000197DD364B98453EDCBB
:10331000A8F50013002200203049904699461EF07F
:1033200025FDCDE9020100222B4B204629461EF047
:10333000D5FE42464B461EF019FDDDE900238046CE
:103340008946204629461EF0C9FE524604460D46CF
:103350005B46304639461EF0C1FE02460B4620460B
:1033600029461EF003FD02460B46404649461EF024
:10337000FDFC02460B46DDE902011EF0F7FC05B03C
:10338000BDE8F08F1549002005B0BDE8F08F9FED36
:10339000107B4FF000088DED027BDFF84C90C2E708
:1033A000D43888BEE9FAA8BDC4B1B4BD9EEE213EB2
:1033B000AD529C804F7E923E9015CB19A001FA3EF3
:1033C0007751C1166CC1563F4C5555555555A53FC3
:1033D000000000000000E73F0000E03F0000F03F79
:1033E0003233D33F0000E93F0000D23F000000002D
:1033F0002DE9F04FADF5197DBE4CA29EBE4D54F89F
:1034000026600793D41E85FB0475E417C4EBA5045E
:1034100024EAE4741D46631CA3EB8303013D02EB25
:10342000C3030593731904960994019503900B91B6
:10343000A4EB05071AD43B44002400255E1C0DF1C3
:103440008008DDF88C9208E059F827001EF0DCFDBA
:103450000137B742E8E8020108D0002FF4DA01375B
:1034600020462946B742E8E80201F6D1049B002B2A
:10347000079B4FEAC30302932ADB039A20A902EBBE
:10348000030801EB0309049B72AA02EBC30B0DF5C1
:10349000E07A019B002B4FF000064FF0000711DB94
:1034A000039C4D4675E90223F4E802011EF016FE66
:1034B00002460B46304639461EF05AFC4445064645
:1034C0000F46EFD1EAE80267DA4509F10809E0D1D1
:1034D000DDE90204049920448B0082460BA8A3F185
:1034E0000802C31808930CAB13440A938B4698AB9D
:1034F00003EBCB03BBF1000F53E9284529DD70AB8B
:1035000003EBCB080DF1300900227C4B2046294605
:103510001EF0E4FD1FF092F81EF076FD0022784BBD
:1035200006460F461EF0DAFD02460B4620462946A7
:103530001EF01CFC1FF082F878E9022349F8040B06
:10354000394630461EF014FC70AB984504460D46D3
:10355000DAD1DDF81490204629464A4601F030F8C9
:1035600000224FF07F5304460D461EF0B7FDFDF7D5
:103570009BFC0022634B1EF0B1FD02460B46204629
:1035800029461EF0F3FB0D4604461FF057F880460F
:103590001EF03AFD0B460246294620461EF0E6FB89
:1035A0004B46002B06460F4640F3E1800BF1FF32FD
:1035B0000CA9C9F1180351F8225045FA03F101FA98
:1035C00003F30CA8EB1A40F82230C9F11705884420
:1035D00043FA05F5002D2CDDBBF1000F08F10108C1
:1035E00040F381820C9C002C40F0A780BBF1010FBE
:1035F0000AD00CA9012251F8044F531C002C40F0B2
:103600009E809B451A46F6D1059B002B0EDD012BB3
:1036100000F0D980022B09D10BF1FF320CAB0CA9C1
:1036200053F82230C3F3150341F82230022D00F085
:10363000AF8000220023304639461EF0B7FF002835
:1036400000F05382049B0BF1FF394B4510DC0BF16A
:1036500080430CAA013B089802EB8303002253F835
:103660000419834242EA0102F9D1002A40F0B680EF
:10367000049B0CAA013B52F82330002B40F0A180A0
:103680000A9A012352F8041901330029FAD05B4445
:103690000BF10109994506934CDC099A079909EB4E
:1036A000020801EB0B0508F1804802EB030BA39B1A
:1036B00008F1FF3803EB880870AB03EBC909A39B43
:1036C00020A903EB8B0301EBC505029358F8040F07
:1036D0001EF09AFC0B4601990246002905F1080BE1
:1036E000C5E900234FF000064FF000071CDB039CE8
:1036F0000CE000BF24640200ABAAAA2A0000703EBE
:10370000000070410000204075E90223F4E8020146
:103710001EF0E4FC02460B46304639461EF028FBFC
:10372000544506460F46EFD1029B9845E9E80267EB
:103730005D46CBD1DDF818B0D9E6012300220CA9F3
:10374000C4F180749B4541F822400EDD51F82320DE
:1037500001EB8B0001EB83036FF07F4100E01A68FF
:103760008A1A43F8042B8342F9D101244CE706D18D
:103770000BF1FF330CAA52F82350ED152AE7002273
:103780007B4B1EF031FF002840F0A381054650E737
:1037900032463B46002077491EF0E8FA06460F46BF
:1037A000002C3FF446AF059A7249002000F008FF54
:1037B00002460B46304639461EF0D8FA06460F46FA
:1037C00037E7012363E70BF1FF320CAB0CA953F889
:1037D0002230C3F3160341F8223027E70CAB059AD9
:1037E00053F82930183ACDE9068505926BB909F1ED
:1037F0008043013B0CA901EB830353F8041909F141
:10380000FF39183A0029F8D00592059A5949002045
:1038100000F0D6FEB9F1000F04460D46C0F2C0819B
:103820004FEAC90370AA02EB030808930CAB03EB41
:103830008906DFF844B14FF0000A08F108070436A2
:1038400056F8040D1EF0E0FB22462B461EF046FC07
:103850005B4667E902015246204629461EF03EFCBF
:103860000CAB9E4204460D46EAD148AB039301934C
:10387000CDF8149009F10103DDF810900293C346CE
:103880004FF0000AB9F1000FC0F22A81DFF8EC8096
:103890005D4635A3D3E9002300260027002403E07A
:1038A000544510DCF8E80223F5E802011EF016FC8E
:1038B00002460B46304639461EF05AFA0134A145FD
:1038C00006460F46ECDA019BE3E802670193029B90
:1038D0000AF1010A9A45ABF1080BD3D1A29BDDF89E
:1038E0001490032B39D8DFE813F0D9000600060046
:1038F0004D0048AB0393B9F1000F4FF000004FF0BB
:10390000000109DB039D05EBC904083474E90223B7
:103910001EF02EFAA542F9D1079B002B40F01E8124
:103920000B9BC3E900010B4603990246D1E9000154
:103930001EF01CFAB9F1000F0CDD4AAD0124013470
:10394000F5E802231EF014FAA145F8DA079B002BD4
:1039500040F014810B9BC3E90201069B03F00700B2
:103960000DF5197DBDE8F08F00000040FB21F93F07
:103970000000E03F0000F03F0000703E783502009C
:1039800048AB0393B9F1000F40F32781039ACDF8B8
:1039900010904FEAC9030193D318D3E900AB09F1A2
:1039A0000053013B02EBC9080293914678E9026794
:1039B00052465B46304639461EF0DAF904460D465B
:1039C00002460B46304639461EF0D0F952465B4659
:1039D0001EF0CEF9C145A246AB46C8E90201C8E9CE
:1039E0000045E3D1DDF81090B9F1010F40F3F58007
:1039F000019B039A02991344C900D3E9006701F1BE
:103A0000080A019192440DF5947B7AE902893246C5
:103A10003B46404649461EF0ABF904460D46024679
:103A20000B46404649461EF0A1F932463B461EF081
:103A30009FF9D34526462F46CAE90201CAE9004547
:103A4000E3D1019C039B1034002000211C4403F1AE
:103A5000100574E902231EF08BF9A542F9D1039CED
:103A6000079ED4E90023D4E90245002E00F08A80A5
:103A700003F1004701F100430B99C1E90403069BE0
:103A80002646944605F1004403F00700C1E900C74B
:103A9000C1E902640DF5197DBDE8F08F089C039D16
:103AA0000834002000212C4474E902231EF060F940
:103AB000A542F9D1079B13B101F1004319460B9BB5
:103AC000C3E90001069B03F007000DF5197DBDE871
:103AD000F08FBBF1000F08F1010874DD022581E5CC
:103AE00000260027EFE600248EE5CDE90685059D3A
:103AF000304639466A4200F063FD0022384B0646E4
:103B00000F461EF071FD00B30022364B3046394699
:103B10001EF0E4FA1EF092FD04461EF075FA002233
:103B20002F4B1EF0DBFA0B460246394630461EF09C
:103B30001DF91EF083FD0BF101090CAB183543F89C
:103B40002B00059543F829405FE6304639461EF0C4
:103B500075FD0CABD94643F82B0056E60B9C01F1E2
:103B60000043C4E900030B4603990246D1E9000172
:103B70001EF0FCF8B9F1000F3FF7DFAE01F1004392
:103B80001946E7E60B9EC6E90023069BC6E9040139
:103B900003F00700C6E902450DF5197DBDE8F08F79
:103BA000A29B032B3FF6D9AE01A252F823F000BF2F
:103BB000C13B0000F3380000F338000081390000F9
:103BC0000020002176E732463B46002006491EF0E1
:103BD000CDF8022506460F462BE5002000213EE7E2
:103BE000000070410000703E0000F03F0000000047
:103BF0002DE9F04F21F00046B6F1795F85B004461B
:103C00000D469046994604DA1EF018FD002800F093
:103C1000858022462B46204629461EF05FFA06463E
:103C20000F4602460B46204629461EF057FA41A38E
:103C3000D3E9002382468B46304639461EF04EFAC1
:103C40003EA3D3E900231EF091F832463B461EF016
:103C500045FA3CA3D3E900231EF08AF832463B46DE
:103C60001EF03CFA39A3D3E900231EF07FF8324658
:103C70003B461EF033FA37A3D3E900231EF078F851
:103C80000E9BCDE900019BB30022294B40464946DB
:103C90001EF024FADDE90023CDE902015046594621
:103CA0001EF01CFA02460B46DDE902011EF05EF82A
:103CB00032463B461EF012FA42464B461EF056F87C
:103CC00019A3D3E9002306460F46504659461EF075
:103CD00005FA02460B46304639461EF049F80246C0
:103CE0000B46204629461EF041F805B0BDE8F08F8E
:103CF00002460B46304639461EF0F0F90AA3D3E9D6
:103D000000231EF033F852465B461EF0E7F92246C8
:103D10002B461EF02DF805B0BDE8F08F2046294651
:103D200005B0BDE8F08F00BF495555555555C53F05
:103D30000000E03F7CD5CF5A3AD9E53DEB9C2B8A79
:103D4000E6E55A3E7DFEB157E31DC73ED561C11978
:103D5000A0012A3FA6F810111111813F00000000B8
:103D60002DE9F04FC04C21F0004687B0A6428246B4
:103D70008B460F46CDE900231ADC1EF05FFC0028BD
:103D80003FD1109B524601331343334300F0B781B8
:103D9000109B012B00F0C0815B460020B3491EF050
:103DA000C7FA04460D462046294607B0BDE8F08F05
:103DB000AF4B9E4225DD002909DADDE900452246A8
:103DC00005F10043CDE900230BF100418B4652463B
:103DD0005B4685A1D1E900011DF0C8FFDDE90023A4
:103DE00004460D4682A1D1E900011DF0BFFF9FED01
:103DF000827B22462B468DED007B1DF0B9FF82466B
:103E00008B4652465B46504659461EF067F90246BD
:103E10000B46804689461EF061F9424604460D462F
:103E20004B46504659461EF059F975A3D3E9002375
:103E3000CDE90201204629461EF050F972A3D3E9CC
:103E400000231DF095FF22462B461EF047F970A374
:103E5000D3E900231DF08CFF22462B461EF03EF9CD
:103E60006DA3D3E900231DF083FF22462B461EF0ED
:103E700035F96BA3D3E900231DF07AFF22462B46C8
:103E80001EF02CF968A3D3E900231DF071FF424610
:103E90004B461EF023F966A3D3E90023CDE90401C4
:103EA000204629461EF01AF963A3D3E900231DF02A
:103EB0005FFF22462B461EF011F961A3D3E90023D0
:103EC0001DF056FF22462B461EF008F95EA3D3E9EB
:103ED00000231DF04DFF22462B461EF0FFF85CA389
:103EE000D3E900231DF044FF22462B461EF0F6F8CE
:103EF00059A3D3E900231DF03BFF02460B46DDE941
:103F000004011DF035FFDDE902231EF0E7F8DDE9CD
:103F1000004522462B461DF02BFF42464B461EF025
:103F2000DDF822462B461DF023FF4DA3D3E90023E5
:103F300004460D46DDE902011EF0D0F822462B466C
:103F40001DF016FF0B4602468046894650465946EC
:103F50001DF00EFF464B9E4204460D4600F38C803A
:103F6000109B012B3BD002460B4600203F491EF020
:103F7000DFF9002406460F462046294652465B4696
:103F8000CDE90067CDE9020100941DF0EFFEDDE907
:103F900000AB02460B46404649461DF0E7FE52463E
:103FA0005B461EF09BF8524604460D465B46DDE933
:103FB00002011EF093F800222E4B1DF0D9FE02469E
:103FC0000B46204629461DF0D3FE32463B461EF0E6
:103FD00085F852465B461DF0CBFE04460D46204652
:103FE000294607B0BDE8F08F182D4454FB21E93F66
:103FF000075C143326A6813C00000000000000008E
:10400000D47ABF74702AFB3EE9A7F0320FB8123F92
:1040100068108D1AF726303F1583E0FEC8DB573F46
:1040200093846EE9E326823FFE41B31BBAA1AB3F06
:10403000735360DBCB75F3BEA69237A0887E143F26
:104040000165F2F2D844433F280356C9226D6D3F03
:1040500037D60684F464963F7AFE10111111C13FE1
:10406000635555555555D53FFFFF2F3E0000F0BF16
:104070002794E53F0000F03F10981DF0C5FF224651
:10408000CDE900012B46204629461EF027F8DDE940
:104090000023CDE90201204629461DF069FE0246B3
:1040A0000B46DDE902011EF043F942464B461DF086
:1040B0005DFE02460B46504659461DF057FE02462D
:1040C0000B461DF055FE02460B46DDE900011DF0D2
:1040D0004DFE0446B81700F00200C0F101000D4685
:1040E0001DF092FF02460B46204629461DF0F6FFC2
:1040F00004460D462046294607B0BDE8F08F5046DD
:1041000059461AF049FF02460B46002004491EF0AA
:104110000FF904460D4662E754465D465FE700BF6F
:104120000000F03F000000002DE9F04FCC4A21F0E4
:104130000043934285B082468B460C4620D9C94A3B
:10414000934200F2D780002C80F2A481ACA3D3E983
:104150000023504659461DF00BFE002200231EF09E
:104160002FFA002840F0D180A7A3D3E900235046BE
:1041700059461DF0B3FF02460B460020BA4994E1B0
:10418000BA4A934200F2E580B94A934240F22E8146
:10419000002301930022B74B504659461DF09EFF65
:1041A00006460F4602460B46504659461DF096FFFE
:1041B00097A3D3E9002304460D461DF08FFF96A375
:1041C000D3E900231DF0D4FD22462B461DF086FFC7
:1041D00093A3D3E900231DF0C9FD22462B461DF011
:1041E0007DFF91A3D3E900231DF0C2FD22462B469B
:1041F0001DF074FF8EA3D3E900231DF0B7FD224606
:104200002B461DF06BFF00229B4B1DF0B1FD80463D
:10421000894602460B46304639461DF05FFF02468E
:104220000B46002095491DF0A1FD064602460B46AF
:104230000F46404649461DF099FD32468046894664
:104240003B46504659461DF049FF02460B460020AA
:104250008B491DF08BFD02460B46404649461EF039
:1042600067F822462B461DF039FF019E02460B4699
:10427000002E4DD0DDE9026732463B461DF076FD4B
:1042800052465B461DF02AFF32463B461DF06EFD4E
:104290002B4622461DF06AFD019B013306460F4660
:1042A00000F02381019B012B7BD0019A531C392BF9
:1042B0004FEA025500F22881019A132A40F35581F2
:1042C000019BC3F57F740334002223051DF050FDCC
:1042D00002460B46504659461DF048FD0022664BEB
:1042E0001DF046FD824605EB010B5046594605B0D0
:1042F000BDE8F08F634A93421BD9C1F31303034314
:10430000024640F012810029EFDA00205E490DE0FC
:10431000504659461DF0E2FE22462B461DF026FD72
:1043200002460B46504659461DF020FD05B0BDE83B
:10433000F08F41A3D3E900231EF060F900283FF479
:1043400002AF3FA3D3E90023104619461DF0C6FE75
:10435000ECE74E4A934200F2EC8000293AA3D3E9FD
:10436000002339DA1DF004FD39A7D7E900674FF0C3
:10437000FF3380468946019332463B4640464946D4
:104380001DF0F4FC02460B4682468B4640464946E9
:104390001DF0ECFC32463B461DF0E8FCCDE9020185
:1043A000F8E600223A4B504659461EF009F900281B
:1043B00000F0CC805046594600222E4B1DF0D8FC10
:1043C00002460B46304639461DF0D0FC00224FF025
:1043D00040431DF083FEA9E71DF0C8FC0123804681
:1043E000894601931CA7D7E90067C5E714A3D3E961
:1043F00000231DF0BDFC02460B468FE7AFF30080A3
:1044000059F3F8C21F6EA501FE822B654715F73FD1
:104410002DC3096EB7FD8ABE3952E686CACFD03E9B
:10442000B7DBAA9E19CE143F8555FE19A0015A3F4D
:10443000F41011111111A13FEF39FAFE422E8640FE
:104440009C7500883CE4377E0000E0FE422EE63F8B
:10445000763C7935EF39EABD763C7935EF39EA3D7E
:1044600079684340412E86400000E0BF422ED63F8F
:10447000FFFF8F3C0000E03F0000F03F00000840DD
:1044800000001840FFFFEF7F0000F0BFB1A2F03F37
:104490000000D0BF44A3D3E90023504659461DF085
:1044A0001DFE02460B46002041491DF061FC1EF036
:1044B000C5F801901DF0A8FD37A3D3E900230646F7
:1044C0000F461DF00BFE02460B46504659461DF0A6
:1044D0004DFC33A3D3E90023804689463046394654
:1044E0001DF0FCFD06460F4646E702460B465046C9
:1044F00059461DF03BFC00222D4B1DF0EFFD002224
:104500002B4B1DF033FC11E752465B461DF02EFC91
:1045100002460B46002027491DF028FC6B1819465F
:104520000022244B1DF022FC00E70B461DF020FC6E
:10453000FCE61DA3D3E900231DF0D0FD002C0246AC
:104540000B464FF00000AFDA1B49AEE732463B4660
:10455000504659461DF00AFC02460B461DF008FC69
:104560000022144B1DF004FCE0E64FF4001343FA64
:1045700002F452465B461DF0F9FBC4F17F5700265A
:1045800007F5401702460B46304639461DF0EEFB54
:10459000A8E600BFAFF300800000E0FE422EE63F39
:1045A000763C7935EF39EA3DFE822B654715F73FBA
:1045B0000000E03F0000F03F0000E0BF000000000E
:1045C000F8B5C1F30A5304460D460E4617460BBB19
:1045D00021F00046034633431BD0354B00221DF02B
:1045E0007DFD344B9F4204460D4635DBC1F30A5333
:1045F0000E46363B3B4440F2FE72934232DC002BC7
:1046000011DD26F0FF4626F4E00646EA0355204673
:104610002946F8BD40F2FF729342EBD102460B46A9
:104620001DF0A6FBF8BD13F1350F28DA4CF250331C
:104630009F4222462B460ADD19A1D1E900011DF057
:10464000F1FA17A3D3E900231DF048FDF8BD16A128
:10465000D1E900011DF0E6FA13A3D3E900231DF010
:104660003DFDF8BD22462B460DA1D1E900011DF00C
:10467000D9FA0BA3D3E900231DF030FDF8BD26F0D5
:10468000FF4626F4E006363346EA0355204629461F
:104690000022094B1DF022FDF8BD00BFAFF30080E2
:1046A0009C7500883CE4377E59F3F8C21F6EA50163
:1046B00000005043B03CFFFF0000903C10B5054C9B
:1046C000237833B9044B13B10448AFF300800123BE
:1046D000237010BD0818002000000000A46502002F
:1046E00008B5034B1BB103490348AFF3008008BD75
:1046F000000000000C180020A4650200154B002BE0
:1047000008BF134B9D46A3F5803A00218B460F4608
:104710001348144A121A02F00FFF0F4B002B00D05F
:1047200098470E4B002B00D0984700200021040032
:104730000D000D48002802D00C4809F043FC1DF084
:10474000A7FA2000290008F09FFD1DF08DFA00BF98
:10475000000008000000022000000000000000002F
:104760000004002008200020C5DF00000000000039
:10477000704700BF0B68984221D10B6998421EDC3C
:104780008B6998421BDA002830B408DB4B68146848
:10479000A3425468B8BF1360A342C8BF53600B6BF9
:1047A000002B05DD4A688D6A0C6A2A444A601B1B8F
:1047B0004A6A0130134408600B6330BC704770478D
:1047C0000B6898422DD1F0B44B684F69BB4226DB91
:1047D0008C69A04223DA0C6BD1F820C00BE0CD6AC3
:1047E0004E6A05443444A8420D60644403F1FF332B
:1047F00013D1BB4211DB002807DB15689D425568C9
:10480000C8BF13609D42B8BF5360002CE7DC0D6841
:10481000A842644403F1FF33EBD00C634B60F0BC5F
:10482000704770470B6898422DD1F0B44B684F69C0
:10483000BB4226DC8C69A04223DA0C6BD1F820C085
:104840000BE0CD6A4E6A0544A41BA8420D60644487
:1048500003F1010313D1BB4211DC002807DB15680B
:104860009D425568C8BF13609D42B8BF5360002C7D
:10487000E7DC0D68A842644403F10103EBD00C634C
:104880004B60F0BC7047704742680146938902480C
:1048900052890FF0CFBB00BFDC3502004368588956
:1048A000884207DD002A05DB98898242ACBF0020E0
:1048B000012070470020704770B506464068457A71
:1048C000012D82B000F110040ED0042D27D1838970
:1048D0009B001F335B119B0001FB0344C2B920788E
:1048E00000F00F0002B070BD83890733DB1001FBBD
:1048F00003440AB104EBE2040123217802F0070229
:1049000003FA02F20A4214BF1846002002B070BD3A
:104910005310E05CD307E3D5001102B070BD40F244
:104920003530CDE9001203F03BFA00997368019A23
:104930005B7A641A32B1012BDCD0042BE8D0002062
:1049400002B070BD042BCAD0012BF8D1D4E700BF50
:1049500070B506464068447A012C84B000F1100519
:1049600013D0042C29D1808980001F304011800091
:1049700001FB00519ABB91F9000020F00F0003F0F9
:104980000F0303430B7004B070BD80890730C01063
:1049900001FB00510AB101EBE201012002F0070224
:1049A00000FA02F2087823B920EA0200087004B085
:1049B00070BD1043087004B070BD40F23530CDE9D1
:1049C0000223019103F0ECF9DDE9022301997068FB
:1049D000691A407A82B10128DDD00428D3D101EBD5
:1049E0006201D20791F90000C7D500F00F0040EA3C
:1049F00003130B7004B070BD0428BCD00128CCD0C8
:104A000004B070BD2DE9F84F0A9FBF1A48BF7F421E
:104A1000A3EB01094CBF4FF0FF3B4FF0010B7F00B0
:104A20008B42A7EB09050C469846164682464FEA8C
:104A300049090EDB324621460B9B50460134FFF7F5
:104A400087FF002DC4BFA5EB09055E44A0453D448A
:104A5000F0DABDE8F88F00BF2DE9F84FDDF82880C7
:104A60005B1A48BF5B42A8EB02094CBF4FF0FF3B0B
:104A70004FF0010B5F009045A7EB090514460E4669
:104A800082464FEA49090EDB224631460B9B5046CF
:104A90000134FFF75DFF002DC4BFA5EB09055E449F
:104AA000A0453D44F0DABDE8F88F00BFD0E90132FF
:104AB000013282609A0701D11A0F08D110B504465D
:104AC000596803F1080003F01FFF606010BD7047D4
:104AD00030B445680B68688923EAE374431EA34237
:104AE000A8BF23460B60AB891168013B21EAE17145
:104AF0008B42A8BF0B46136030BC704738B503F03B
:104B000003FF054605F03AFE0C2005F01FFD0446A4
:104B100028B10A4A456000230260836025B1284617
:104B200005F03AFE204638BD40F2353003F038F942
:104B3000284605F031FE204638BD00BFF83502009A
:104B4000B0F5FA6F24D8B1F5FA6F21D8012A70B503
:104B500018D0042A1ED18B001F335C11830003FB85
:104B600004F308330D460446194600201646FFF7A5
:104B7000C5FF4368872100225E725C819D811972A6
:104B8000DA8170BDCB1DDB1000FB03F30833E9E7CE
:104B900000207047002070BD38B14368082B02DD4B
:104BA000027A872A02D0002070477047427A012A91
:104BB0000FD0042AF7D18289408992001F32521106
:104BC000800000FB02F00830181AB0FA80F04009AB
:104BD0007047828940890732D21000FB02F008300A
:104BE000F2E700BF48B14268042A04DD037AE12BF2
:104BF00014D0E42B02D0002070477047817A437AAA
:104C00001F2000EB81009B00401103FB00F30833E1
:104C1000181F801AB0FA80F040097047817A437AF1
:104C2000C81DC01003FB00F30833F1E700207047F4
:104C300043685889704700BF43689889704700BF30
:104C40004368587AA0F10100B0FA80F0400970473B
:104C500043689A0704D11B0F0CBF01200020704746
:104C6000012070478068003018BF0120704700BFE6
:104C70002DE9F0410D1E04DB04461F46FFF70EFE32
:104C800008B9BDE8F08116462046FFF70FFF3B4606
:104C9000324629462046BDE8F041FFF759BE00BF25
:104CA00070B50C1E04DB25460446FFF7F7FD08B976
:104CB000002070BD29462046BDE87040FFF7FCBDCE
:104CC0004068437A042B00D0704743898B42FBD95C
:104CD00070B4848955685E1AA30004FB06F4AC42E4
:104CE00003F11F034FEA6313A8BF2C469B0010304B
:104CF000641001FB030112D0013C08190A3201398A
:104D000011F8013F03F00F0302F8023C0B788142D7
:104D10004FEA231302F8013C02F10202F0D170BC09
:104D2000704700BF2DE9F04143685D7A042D01D042
:104D3000BDE8F081B3F80A808845F9D904461746E2
:104D40009D890E46FFF7B2FE63685A7A012A03F185
:104D5000100424D0042A26D1998989001F314911D1
:104D600089007B68A8EB060805FB08F09842A8BFFD
:104D70001846401001FB0641DAD007F10A02084448
:104D800012F8023C12F8014C03F00F0343EA04133B
:104D900001F8013B814202F10202F1D1C8E7998991
:104DA0000731C910DDE740F2353002F0F9FF4FF06E
:104DB000FF31D6E72DE9F04786B0CDE902210BB1EE
:104DC0000E9D15B906B0BDE8F08745686E89B14201
:104DD0000446F7DAAD89AA42F4DA01390B440E9998
:104DE000013A0A44002BCDE90432EBDB002AE9DB6F
:104DF00005AA04A9FFF76CFE02AA03A92046FFF743
:104E000067FE6168DDE90475DDE902238889013701
:104E100001354607A7EB0307A5EB020505D123B92A
:104E20001AB94B899F4200F0CA802046FFF73EFE28
:104E300061684B7A012B00F09380042B40F0C7800F
:104E4000B1F80CE00F984FEA8E0E0EF11F0E00F035
:104E50000F06DDE902324FEA6E1E06EB06164FEA38
:104E60008E0E5FFA86FA01F11008B1F80CC04FEA15
:104E70008C0C0CF11F0C4FEA6C1C4FEA8C0C02FBE3
:104E80000C8C002B40F09880002F07F1FF3106DCDE
:104E900098E7042B2FD001394B1CF44492D063685F
:104EA0005B7A012BF5D1029A002D02F0070203FA7A
:104EB00002F3F0DDE046002205E0384388F8000008
:104EC00001329542E7DDB3F5807F0BD0DFB25B00A6
:104ED0000F9E98F80000002EEFD120EA070088F816
:104EE0000000EDE708F10100AB1A072B80462FDC2C
:104EF00002230127ECE7029B13F0010F14BFF027F8
:104F00000F27002DC7DDE04600200DE0FAB23F017B
:104F100098F8003083EA0A0902EA09020130534096
:104F2000854288F80030B6DDB7F5706FEED108F134
:104F300001022B1A012B9046A3F1020302DCF02799
:104F40000F22E5E70230854202F801ABF2DCA2E76E
:104F50000832954200F801ABA3F10803C5DC9AE7DB
:104F6000B1F80CE00EF1070E4FEAEE0EF446DDE963
:104F7000023201F110080CFB028C0F9A42F300067A
:104F80005FFA86FA002B3FF47FAF0CEBE30C7BE774
:104F900040F23530CDE9003202F002FF019A009B69
:104FA000A8EB020CA3B36268527A012A4FF0FF3ECD
:104FB000EBD0042A7FF468AF0CEB630C64E7854206
:104FC0007FF433AF20460F9900F026F8FAE640F25E
:104FD000353002F0E5FE6168487A012808D1B1F861
:104FE0000CC00CF1070C4FEAEC0C4FF0FF3EBEE793
:104FF0000F9B03F00F0606EB061604285FFA86FAED
:10500000DDE9023201F11008C2D14FF0FF3E2CE77A
:105010004FF0FF3E38E700BF30B5054683B00C4681
:1050200019B1436899894A072DD12846FFF73EFDFB
:1050300069684A7A01F110034968012AE4B218BF8D
:1050400004F00F04A1F108010CBF44F3000404EBC9
:1050500004140329E2B20ED998070DD102EB022005
:1050600021F0030400EB00401C4443F8040BA3426E
:10507000FBD101F0030121B119441A7001339942A7
:10508000FBD103B030BD00225B8900910194114631
:10509000FFF790FE03B030BD10B5141482B0CDE917
:1050A000004313B20A1409B2FFF784FE02B010BD28
:1050B0002DE9F04784B0CDE900210BB10C9C14B967
:1050C00004B0BDE8F08745686E89B1428246F7DAE0
:1050D000AE89B242F4DA6D7A042DF1D10D9C656887
:1050E0000F2DEDDD01390B440C99013A0A44002BD8
:1050F000CDE90232E4DB002AE2DB03AA02A9FFF7D2
:10510000E7FC6A4601A95046FFF7E2FCDDE902230D
:10511000DDE90061013201335046A2EB01089E1B1C
:10512000FFF7C4FCDAF804700D9A7B7A012B02F1C8
:10513000080544D0042B53D1B7F80CC04FEA8C0CAF
:105140000CF11F0C4FEA6C1CDDE900494FEA8C0C96
:105150001037634603FB0977002C61D1B8F1000FCB
:1051600008F1FF34ACDD009B002E03F001021FDDCF
:105170003B7838460AB301220EE0437801320846F4
:1051800003F00F0103F0F003695C01F00F010B4322
:10519000964203700CDD0132191103F00F0315F86C
:1051A00001E0014643EA0E13964201F8013BE4DCBC
:1051B000013C631C6744D6D182E70122E0E7B7F8DF
:1051C0000CC0DDE900490CF1070C4FEAEC0C10377C
:1051D000634603FB0977002CC0D007EBE407BDE76B
:1051E00040F2353002F0DCFDDAF80430DDF80490EE
:1051F0005A7A009C012A03F1100714D0042A1BD00C
:1052000040F2353002F0CCFDA7EB09078CB1DAF89B
:1052100004305B7A012B4FF0FF3CDED0042B9DD194
:1052200007EB64079AE79B890733DB104FF0FF3CDD
:10523000CFE74FF0FF3C91E79B899B001F335B1149
:105240009B004FF0FF3C85E710B5141482B0CDE908
:10525000004313B20A1409B2FFF72AFF02B010BDCF
:1052600081B108B54068496842684B689A4201D0EC
:10527000002008BD083108301DF097FCB0FA80F01E
:10528000400908BD08467047406841680830FFF78C
:1052900035BC00BF2DE9F0410746FFF707FC7B68EE
:1052A0005A892AB300269C89013C002C1CDD00256C
:1052B0002A4631463846FFF7FFFA224680463146F5
:1052C0003846FFF7F9FA2A46034631463846FFF7D3
:1052D0003FFB01352246434631463846013CFFF745
:1052E00037FBA542E4DB7B685A8901369642DADB5C
:1052F000BDE8F08170B5436805465A7A59899889A6
:10530000FFF71EFC6B685A890646B2B100249A89E1
:105310007AB1214600222846FFF7CEFA22460346FC
:1053200000213046FFF714FB6B689A890134002A8C
:10533000EFD15A8901349442E9DB304670BD00BF99
:105340002DE9F043436899897E2983B05ADC814670
:105350005A7A58894900FFF7F3FBD9F804304268BC
:10536000597A5F890129804602F110043FD004294F
:1053700057D19E89B6001F367611B600517A0129A1
:105380003CD0042944D19589AD001F356D11AD0085
:10539000D9F804202848517A284A012908BF104624
:1053A0000FB303F10F0E4FF0000905F1FF3C002D84
:1053B00014DD7146002311F8012F02F00F0263453E
:1053C000825C227008BF013405D00A7812110234C1
:1053D000825C04F8012C0233AB42ECDB09F10109D9
:1053E000B945B644E3D1404603B0BDE8F0839E8999
:1053F000517A073601294FEAE606C2D19589073569
:10540000ED10C5E74FF00008404603B0BDE8F0835B
:1054100040F2353001934FF0FF3502F0C1FC019BA3
:10542000B6E740F2353001934FF0FF3602F0B8FC9A
:10543000D8F80420019BA1E7CC350200BC3502005E
:10544000F8B543685B7A042B00D0F8BD02F00F0674
:105450008E42FAD005460F46FFF728FB6B6817B956
:105460009A89520721D15A68082A03F11001ECD019
:105470001144340109390F3364B213F8010F00F0FD
:105480000F02BA4204BF20F00F003043B7EB101FE9
:1054900003D100F00F002043C0B299421870ECD144
:1054A000F8BD9A8901379742CFDA5A89002AF8D095
:1054B000002404E06B685A8901349442F1DA3A46D8
:1054C00021462846FFF7F8F90028F3D133463A463B
:1054D00021462846FFF73CFAECE700BF2DE9F041F2
:1054E0001C4684B08C420746DDE90A5306DB8BE09C
:1054F0002E46204615460C4632460146A142F7DBB1
:10550000B2EB0508A1EB040610D1002E6CD04FF0D1
:10551000010C0B932A4606EB0C0321463846CDF8C6
:1055200028C004B0BDE8F041FFF744BC7EB9B8F133
:10553000000F64DD08F10102CDE90A232A46214665
:105540003846012304B0BDE8F041FFF733BC002921
:1055500052DBD7F804C0BCF80A00A0424CDD002C96
:1055600005DA04FB08F494FBF6F42D1B00248842B2
:1055700007DC0138411A08FB01FE01469EFBF6F0EC
:1055800002449542BCF80C0045DB824234DA002D1F
:1055900032DB002A05DA06FB02F292FBF8F2891AE6
:1055A0000022854207DB0138451B06FB05FC05464A
:1055B0009CFBF8F004443846CDE902230191FFF743
:1055C00075FAB8F1000FDDE90112039B3ADB46459D
:1055D000CDE90A2338460B462A4621463CDC04B076
:1055E000BDE8F041FFF738BA2A462146384604B0F4
:1055F000BDE8F041FFF73CBB04B0BDE8F081C8F165
:105600000101CDE90A139AE7164608462A462146C3
:105610003546044674E78542EEDA002AECDB002DBD
:1056200005DA06FB05F595FBF8F5641B00258242BB
:10563000C1DB0138821A06FB02FC02469CFBF8F033
:105640000144B8E7C8F1000846450B9309DD0A920A
:105650000B462A462146384604B0BDE8F041FFF724
:10566000D1B90A9523463846B9E700BF10B51414DE
:1056700082B0CDE9004313B20A1409B2FFF72EFF3E
:1056800002B010BDF8B50F1E16DB144600221E46F0
:105690000546FFF703F978B1069B002B0CDB0022CF
:1056A00019462846FFF7FAF830B1079B002B03DDB7
:1056B0006B685A7A042A00D0F8BD7268517A0429BE
:1056C000FAD19889558981001F3149111033890019
:1056D00007FB0137079B1E198642A8BF0646002C10
:1056E0004FEA054595FBF3F52FDB01D007EB640787
:1056F0000021938906989B001F335B119B00A642F3
:1057000000FB03F302F11002D6DD02EB030C4B1495
:10571000CA031CF803304CBF1A1103F00F0297F9AB
:10572000003014F0010F03F00F0004BF23F00F034B
:10573000134340EA021004F1010414BF07F8010BFF
:105740003B70B4422944E2D1F8BD05FB04F1494263
:105750000024CEE730B51D1483B01CB2CDE900455E
:1057600013460A1409B2FFF78DFF03B030BD00BF26
:105770002DE9F04F8BB0914601901089059108B149
:105780005368186803F028FDB9F80830012B88BF6A
:10579000D9F8043004468CBF5868002003F01CFD83
:1057A000B9F80830022B88BFD9F8043080468CBF86
:1057B0009868002003F010FDB9F80830032B88BF6B
:1057C000D9F8043007468CBFD868002003F004FDE8
:1057D000B9F80830042B88BFD9F8043082468CBF52
:1057E0001869002003F0F8FCB9F80830052B88BFD1
:1057F000D9F8043005468CBF5869002003F0ECFC52
:10580000B9F80830062B88BFD9F8043083468CBF1E
:105810009869002003F0E0FCB9F80830072B064631
:1058200040F2B980D9F80430D86903F0D5FCB9F852
:105830000820D9F80410082A034640F2BE80086AFE
:10584000422800F0BE800A2840F0CB800020029061
:10585000092A09D9486A422800F0C0800A2803D0E2
:1058600010B1062840F0B0804FF00009059A019968
:10587000526848685189B0F80AC0B0F80CE09289C3
:1058800030042E448E42A8BF0E4603EB0B0191421A
:10589000A8BF11461B0493FBFAF306930B4690FB3B
:1058A000F7F004EAE47127441B04C24467450893F7
:1058B00001FB00F30090A8BF6746C3EB0540F2452B
:1058C000069B08EAE872A8BFF246CDF81CA002FBCE
:1058D00003FA631ACAEB0B4A049320EAE073360416
:1058E0000993A8EB02082AEAEA7AB9F1000F60D01E
:1058F000079B984549DA089B534546DDDDF814B00F
:10590000CDF80CA0039B4FEA234A049BBB422FDA3D
:10591000099CA6422CDD52464B46C246B146049D28
:105920001E4690460AE0002837D1029B8BB1013514
:10593000009BBD421C4417D0A14515DD42462114F1
:105940005846FEF7B9FF002EEDD1029B0BB100289F
:10595000EDD00346294652460198FEF7F9FF01357E
:10596000009BBD421C44E7D13346D0464E46994683
:10597000039B069A13440393079B08F1010898457B
:1059800003D0089B039A9342BCDC4FF000094846C1
:105990000BB0BDE8F08F002047E75246294601983A
:1059A000FEF78AFF0028C2D0B14648460BB0BDE8DA
:1059B000F08F0198FFF77AF89AE700220292914659
:1059C00054E70120029043E7009303F08DFF10F1AC
:1059D000000918BF4FF00109009B47E74FF001098C
:1059E00044E700283FF433AF06283FF42FAF00937D
:1059F00003F07AFF031C18BF01230293D9F80410A7
:105A0000B9F80820009B23E7FFF7B2BE2DE9F04F5D
:105A100089B05C000594C4F1010403945C1E53D466
:105A2000012306928B46824607930493002507E0E4
:105A3000049A013C02321344A5420492039343DCCE
:105A4000069E129B4FEA4509A6EB050809F10109DC
:105A5000CDE90093424601230BEB04015046FFF7CA
:105A6000A9F96700129B0137361BCDE90073324656
:105A700001230BEB05015046FFF79CF9129B0193A4
:105A800042460123ABEB04015046CDF80090FFF7EE
:105A900091F9129B0193324601230097ABEB05016C
:105AA0005046FFF787F9039B059A002BA3EB0203EF
:105AB000BEDC039A079B114601351944A54203F148
:105AC000020303910793BBDD09B0BDE8F08F00BF6F
:105AD00010B582B00C46009309B213462214FFF7AA
